{
  "contractName": "TodoList",
  "abi": [
    {
      "anonymous": false,
      "inputs": [
        {
          "indexed": false,
          "name": "id",
          "type": "uint256"
        },
        {
          "indexed": false,
          "name": "content",
          "type": "string"
        },
        {
          "indexed": false,
          "name": "completed",
          "type": "bool"
        }
      ],
      "name": "TaskCreated",
      "type": "event"
    },
    {
      "anonymous": false,
      "inputs": [
        {
          "indexed": false,
          "name": "id",
          "type": "uint256"
        },
        {
          "indexed": false,
          "name": "completed",
          "type": "bool"
        }
      ],
      "name": "TaskCompleted",
      "type": "event"
    },
    {
      "anonymous": false,
      "inputs": [
        {
          "indexed": false,
          "name": "id",
          "type": "uint256"
        },
        {
          "indexed": false,
          "name": "deleted",
          "type": "bool"
        }
      ],
      "name": "TaskDeleted",
      "type": "event"
    },
    {
      "constant": false,
      "inputs": [
        {
          "name": "title",
          "type": "string"
        }
      ],
      "name": "createTask",
      "outputs": [],
      "payable": false,
      "stateMutability": "nonpayable",
      "type": "function"
    },
    {
      "constant": false,
      "inputs": [
        {
          "name": "_id",
          "type": "uint256"
        }
      ],
      "name": "toggleCompleted",
      "outputs": [],
      "payable": false,
      "stateMutability": "nonpayable",
      "type": "function"
    },
    {
      "constant": false,
      "inputs": [
        {
          "name": "_id",
          "type": "uint256"
        }
      ],
      "name": "deleteTask",
      "outputs": [],
      "payable": false,
      "stateMutability": "nonpayable",
      "type": "function"
    },
    {
      "constant": true,
      "inputs": [],
      "name": "getTasks",
      "outputs": [
        {
          "components": [
            {
              "name": "id",
              "type": "uint256"
            },
            {
              "name": "title",
              "type": "string"
            },
            {
              "name": "owner",
              "type": "address"
            },
            {
              "name": "completed",
              "type": "bool"
            },
            {
              "name": "deleted",
              "type": "bool"
            }
          ],
          "name": "",
          "type": "tuple[]"
        }
      ],
      "payable": false,
      "stateMutability": "view",
      "type": "function"
    }
  ],
  "bytecode": "0x60806040526000805534801561001457600080fd5b50610d5a806100246000396000f3fe6080604052600436106100615763ffffffff7c010000000000000000000000000000000000000000000000000000000060003504166304a87e388114610066578063111002aa14610091578063455f5024146100b3578063560f3192146100d3575b600080fd5b34801561007257600080fd5b5061007b6100f3565b6040516100889190610c04565b60405180910390f35b34801561009d57600080fd5b506100b16100ac366004610a7d565b61036f565b005b3480156100bf57600080fd5b506100b16100ce366004610aba565b6104e9565b3480156100df57600080fd5b506100b16100ee366004610aba565b610724565b60606000805b60015481101561017c57600180548290811061011157fe5b906000526020600020906003020160020160159054906101000a900460ff161580156101685750600180543391908390811061014957fe5b6000918252602090912060026003909202010154600160a060020a0316145b15610174576001909101905b6001016100f9565b506060816040519080825280602002602001820160405280156101b957816020015b6101a661094f565b81526020019060019003908161019e5790505b50905060005b6001548110156103675760018054829081106101d757fe5b906000526020600020906003020160020160159054906101000a900460ff1615801561022e5750600180543391908390811061020f57fe5b6000918252602090912060026003909202010154600160a060020a0316145b1561035f57600180548290811061024157fe5b906000526020600020906003020160a0604051908101604052908160008201548152602001600182018054600181600116156101000203166002900480601f0160208091040260200160405190810160405280929190818152602001828054600181600116156101000203166002900480156102fe5780601f106102d3576101008083540402835291602001916102fe565b820191906000526020600020905b8154815290600101906020018083116102e157829003601f168201915b505050918352505060029190910154600160a060020a038116602083015260ff60a060020a820481161515604084015260a860020a90910416151560609091015282516000199094019383908590811061035457fe5b602090810290910101525b6001016101bf565b509150505b90565b6000805460019081018083556040805160a081018252918252602080830186815233928401929092526060830185905260808301859052835480850180865594909552825160039095027fb10e2d527612073b26eecdfd717e6a320cf44b4afac2b0732d9fcbe2b7fa0cf681019586559151805194959394610418937fb10e2d527612073b26eecdfd717e6a320cf44b4afac2b0732d9fcbe2b7fa0cf70192919091019061097e565b50604082810151600290920180546060850151608090950151151560a860020a0275ff0000000000000000000000000000000000000000001995151560a060020a0274ff000000000000000000000000000000000000000019600160a060020a0390961673ffffffffffffffffffffffffffffffffffffffff1990931692909217949094161793909316919091179091556000805491517f05d0fb833127fc08168556d0e7ca9554fc3f6bc843b3b7d2bf1c35aea6bab66093506104de92918591610c30565b60405180910390a150565b600019016104f561094f565b600180548390811061050357fe5b906000526020600020906003020160a0604051908101604052908160008201548152602001600182018054600181600116156101000203166002900480601f0160208091040260200160405190810160405280929190818152602001828054600181600116156101000203166002900480156105c05780601f10610595576101008083540402835291602001916105c0565b820191906000526020600020905b8154815290600101906020018083116105a357829003601f168201915b505050918352505060029190910154600160a060020a038116602083015260ff60a060020a820481161515604084015260a860020a909104161515606091820152810180511590526001805491925082918490811061061b57fe5b906000526020600020906003020160008201518160000155602082015181600101908051906020019061064f92919061097e565b5060408281015160029092018054606080860151608090960151151560a860020a0275ff0000000000000000000000000000000000000000001996151560a060020a0274ff000000000000000000000000000000000000000019600160a060020a0390971673ffffffffffffffffffffffffffffffffffffffff1990941693909317959095169190911794909416929092179091559082015190517fe21fa966ca5cd02748c0752352d18c48165e61cb55b4c29cccf924b5a95fcff19161071891859190610c15565b60405180910390a15050565b6000190161073061094f565b600180548390811061073e57fe5b906000526020600020906003020160a0604051908101604052908160008201548152602001600182018054600181600116156101000203166002900480601f0160208091040260200160405190810160405280929190818152602001828054600181600116156101000203166002900480156107fb5780601f106107d0576101008083540402835291602001916107fb565b820191906000526020600020905b8154815290600101906020018083116107de57829003601f168201915b505050918352505060029190910154600160a060020a038116602083015260ff60a060020a820481161515604084015260a860020a909104161515606090910152600160808201819052805491925082918490811061085657fe5b906000526020600020906003020160008201518160000155602082015181600101908051906020019061088a92919061097e565b50604082810151600290920180546060850151608095860151151560a860020a0275ff0000000000000000000000000000000000000000001991151560a060020a0274ff000000000000000000000000000000000000000019600160a060020a0390971673ffffffffffffffffffffffffffffffffffffffff1990941693909317959095169190911716929092179091559082015190517f572597a6891de3ffc5ddb25adeb4871a3bf451676410ca50eed9524c49bdc0e69161071891859190610c15565b6040805160a0810182526000808252606060208301819052928201819052918101829052608081019190915290565b828054600181600116156101000203166002900490600052602060002090601f016020900481019282601f106109bf57805160ff19168380011785556109ec565b828001600101855582156109ec579182015b828111156109ec5782518255916020019190600101906109d1565b506109f89291506109fc565b5090565b61036c91905b808211156109f85760008155600101610a02565b6000601f82018313610a2757600080fd5b8135610a3a610a3582610c86565b610c5f565b91508082526020830160208301858383011115610a5657600080fd5b610a61838284610cda565b50505092915050565b6000610a76823561036c565b9392505050565b600060208284031215610a8f57600080fd5b813567ffffffffffffffff811115610aa657600080fd5b610ab284828501610a16565b949350505050565b600060208284031215610acc57600080fd5b6000610ab28484610a6a565b610ae181610cb8565b82525050565b6000610af282610cb4565b80845260208401935083602082028501610b0b85610cae565b60005b84811015610b42578383038852610b26838351610b8c565b9250610b3182610cae565b602098909801979150600101610b0e565b50909695505050505050565b610ae181610cc9565b6000610b6282610cb4565b808452610b76816020860160208601610ce6565b610b7f81610d16565b9093016020019392505050565b805160009060a0840190610ba08582610bfb565b5060208301518482036020860152610bb88282610b57565b9150506040830151610bcd6040860182610ad8565b506060830151610be06060860182610b4e565b506080830151610bf36080860182610b4e565b509392505050565b610ae18161036c565b60208082528101610a768184610ae7565b60408101610c238285610bfb565b610a766020830184610b4e565b60608101610c3e8286610bfb565b8181036020830152610c508185610b57565b9050610ab26040830184610b4e565b60405181810167ffffffffffffffff81118282101715610c7e57600080fd5b604052919050565b600067ffffffffffffffff821115610c9d57600080fd5b506020601f91909101601f19160190565b60200190565b5190565b6000610cc382610cce565b92915050565b151590565b600160a060020a031690565b82818337506000910152565b60005b83811015610d01578181015183820152602001610ce9565b83811115610d10576000848401525b50505050565b601f01601f19169056fea265627a7a72305820942830e2448d6f3395e4cbd094dac146087446a058495788e1d07462d48bccf06c6578706572696d656e74616cf50037",
  "source": "// SPDX-License-Identifier: MIT\npragma solidity >=0.4.22 <0.9.0;\n// FIXME: for funtions to return array we need to use experimentail ABIEncoderV2; find another way to return user's tasks\npragma experimental ABIEncoderV2;\n\ncontract TodoList {\n    struct Task {\n        uint256 id;\n        string title;\n        address owner; // i dont know if we should store user address or not but for testing/learning I think it's ok\n        bool completed;\n        bool deleted; // we can't delete a task in blockchain, so we just mark it as deleted\n    }\n\n    uint256 private taskCount = 0;\n\n    Task[] private tasks;\n\n    // An event is emitted,\n    // it stores the arguments passed in transaction logs. These logs are\n    // stored on blockchain and are accessible using address of the contract\n    // till the contract is present on the blockchain. An event generated is\n    // not accessible from within contracts, not even the one which have created\n    // and emitted them.\n    event TaskCreated(uint256 id, string content, bool completed);\n    event TaskCompleted(uint256 id, bool completed);\n    event TaskDeleted(uint256 id, bool deleted);\n\n    function createTask(string memory title) public {\n        taskCount++;\n        tasks.push(Task(taskCount, title, msg.sender, false, false));\n        emit TaskCreated(taskCount, title, false);\n    }\n\n    function toggleCompleted(uint256 _id) public {\n        _id = _id - 1;\n        Task memory _task = tasks[_id];\n        _task.completed = !_task.completed;\n        tasks[_id] = _task;\n        emit TaskCompleted(_id, _task.completed);\n    }\n\n    function deleteTask(uint256 _id) public {\n        _id = _id - 1;\n        Task memory _task = tasks[_id];\n        _task.deleted = true;\n        tasks[_id] = _task;\n        emit TaskDeleted(_id, _task.deleted);\n    }\n\n    function getTasks() public view returns (Task[] memory) {\n        uint256 result = 0;\n\n        for (uint256 i = 0; i < tasks.length; i++) {\n            if (!tasks[i].deleted && tasks[i].owner == msg.sender) {\n                result++;\n            }\n        }\n        Task[] memory resultTasks = new Task[](result);\n\n        for (uint256 i = 0; i < tasks.length; i++) {\n            if (!tasks[i].deleted && tasks[i].owner == msg.sender) {\n                resultTasks[--result] = tasks[i];\n            }\n        }\n\n        return resultTasks;\n    }\n}\n",
  "sourcePath": "C:\\Users\\Dakshesh\\Documents\\Projects\\web 3.0\\todo-2\\contract\\contracts\\TodoList.sol",
  "compiler": {
    "name": "solc",
    "version": "0.5.0+commit.1d4f565a.Emscripten.clang"
  },
  "schemaVersion": "3.4.10",
  "updatedAt": "2022-11-24T17:09:51.921Z",
  "networkType": "ethereum",
  "devdoc": {
    "methods": {}
  },
  "userdoc": {
    "methods": {}
  }
}